:1000000023C032C031C030C02FC06BC02DC02CC047
:100010002BC02AC029C028C027C026C025C0000088
:100020000000370000000000380002020202020255
:10003000020202020102040810202004100801023A
:10004000000004000000000011241FBECFE5D2E034
:10005000DEBFCDBF21E0A0E6B0E001C01D92AC360E
:10006000B207E1F788D029C1CBCFCF93DF9390E0DF
:10007000FC01EC5CFF4F2491FC01E65DFF4F849195
:10008000882361F190E0880F991FFC01E25EFF4F29
:10009000C591D491FC01EC5DFF4FA591B491611124
:1000A00009C09FB7F8948881209582238883EC91BA
:1000B0002E230BC0623061F49FB7F8943881822FF1
:1000C000809583238883EC912E2B2C939FBF06C0B1
:1000D0008FB7F894E8812E2B28838FBFDF91CF91C3
:1000E00008951F920F920FB60F9211242F933F93F2
:1000F0008F939F93AF93BF93809168019091690113
:10010000A0916A01B0916B013091670126E0230F45
:100110002D3720F40296A11DB11D05C029E8230F3B
:100120000396A11DB11D20936701809368019093F0
:100130006901A0936A01B0936B0180916301909172
:100140006401A0916501B09166010196A11DB11DE8
:100150008093630190936401A0936501B09366015D
:10016000BF91AF919F918F913F912F910F900FBEB3
:100170000F901F90189578948AB582608ABD8AB5D1
:1001800081608ABD83B7826083BF83B7816083BF8C
:1001900089B7826089BF80B7826080BF80B7816085
:1001A00080BF329A319A3098379A8CB580648CBD72
:1001B0001092600061E084E058DF60E083E055DF8A
:1001C00061E081E052DFC2E4D0E008E310E06EE2DB
:1001D000E62E60E0F62E70E0C72E70E0D72E8091FC
:1001E00060008295807F836087B9369A3699FECF0A
:1001F00084B145B12091610130916201F901EF595B
:10020000FF4F90E0942B885F914041E0419708F4C4
:1002100040E04083C90101968F3F910509F02CF41D
:10022000909362018093610104C010926201109268
:100230006101E1E6F0E020E030E08191882311F0F7
:100240002F5F3F4F81E0E136F807B9F7FE01949147
:10025000F8014491F7018491882349F1992399F099
:10026000923071F028F4913071F49AB59F770AC0FA
:10027000933011F0943039F49CB59F7D9CBD03C040
:100280009AB59F7D9ABD90E0880F991F8C5D9F4F16
:10029000FC01A591B4918FB7F8949C91203431055D
:1002A0001CF44095492301C0492B4C938FBFC114C6
:0E02B000D10409F494CFA4DE92CFF894FFCFCE
:00000001FF
