:100000006CC090C005C38EC08DC0B8C28BC08AC002
:1000100089C088C087C086C085C084C083C00000F6
:10002000000036000000000037000000000038002B
:10003000020202020202020202020102040810206D
:1000400020041008010200000400000000004361C9
:100050006C20646F6E652E004445414442414E441D
:100060003D004D41583D004D494E3D004156473DF4
:100070000057696E646F772053697A653D0043616C
:100080006C63756C6174696E672E2E2E004163710E
:10009000756972696E672E2E2E0043616C696272FB
:1000A0006174653A20312D4F4646204C6576656C6B
:1000B000207C20322D49646C65204C6576656C206F
:1000C0007C20332D4F6E204C6576656C207C205152
:1000D0002D517569740014057B0511241FBECFE5F1
:1000E000D2E0DEBFCDBF10E0A0E6B0E0E6ECFBE082
:1000F00002C005900D92A83AB107D9F721E0A8EA0D
:10010000B0E001C01D92AE3DB207E1F710E0CCE6D1
:10011000D0E003C02197FE0140D5CB36D107D1F7FF
:10012000F1D245C56DCF0F931F93CF93DF938C0111
:10013000C0E0D0E0F801EC0FFD1F6491662371F080
:10014000E091BF01F091C0010190F081E02D8FEBB3
:1001500091E00995892B11F02196ECCFCE01DF912A
:10016000CF911F910F9108958091BE018295807F5C
:10017000836087B9369A3699FECF84B125B190E075
:10018000922B0895CF92DF92EF92FF920F931F93DD
:10019000CF93DF936C017A018B01C0E0D0E0CE15E4
:1001A000DF0589F0D8016D918D01D601ED91FC91AB
:1001B0000190F081E02DC6010995892B11F47E0193
:1001C00002C02196ECCFC701DF91CF911F910F9113
:1001D000FF90EF90DF90CF90089590E0FC01EC5BF2
:1001E000FF4F3491FC01E65CFF4F2491FC01E05D80
:1001F000FF4FE491EE2339F1332399F0323071F05F
:1002000028F4313071F48AB58F770AC0333011F099
:10021000343039F48CB58F7D8CBD03C08AB58F7DA9
:100220008ABDF0E0EE0FFF1FE65DFF4FA591B49190
:100230008FB7F894EC91611103C020952E2301C073
:100240002E2B2C938FBF0895CF93DF9390E0FC016A
:10025000E65CFF4F2491FC01E05DFF4F8491882311
:1002600061F190E0880F991FFC01EC5DFF4FC59193
:10027000D491FC01E65DFF4FA591B491611109C0D5
:100280009FB7F8948881209582238883EC912E2350
:100290000BC0623061F49FB7F8943881822F80954B
:1002A00083238883EC912E2B2C939FBF06C08FB79E
:1002B000F894E8812E2B28838FBFDF91CF9108958A
:1002C0003FB7F8948091ED009091EE00A091EF007F
:1002D000B091F00022B708B601FE05C02F3F19F01B
:1002E0000196A11DB11D3FBFBA2FA92F982F8827B6
:1002F000820F911DA11DB11DBC01CD0146E0660F0D
:10030000771F881F991F4A95D1F708952091F30010
:100310003091F4002817390771F49091F100809121
:10032000F200981741F0E091F100F0E0E855FF4F3E
:10033000808190E008958FEF9FEF089508951F93B7
:10034000CF93DF93DC015C962D913C915D97211555
:10035000310539F481E090E013969C938E931297C7
:100360003DC05196ED91FC91529750969C915097BB
:10037000892F80951FB75E964C915E9741FB77273A
:1003800070F941FD6095F8944081772311F0492B75
:1003900001C048234083E9012197F1F748E05081EB
:1003A00060FF02C0592B01C058235083E9012197F7
:1003B000F1F76695415099F7772321F090818923D1
:1003C000808303C08081982B90831FBF5C968D91A2
:1003D0009C915D970197F1F721E030E0C901DF9131
:1003E000CF911F9108952091F3003091F4002817C8
:1003F000390769F48091F2002091F10090E0805C6F
:100400009F4F821B910960E470E07ED3089580E0E5
:1004100090E008952091F3003091F40028173907F7
:10042000B9F49091F1008091F200981789F0E09171
:10043000F100F0E0E855FF4F80812091F10030E0BD
:100440002F5F3F4F2F7333272093F10090E00895E3
:100450008FEF9FEF0895E091F300F091F400E8171B
:10046000F90769F4A389B4899C91858980958923CA
:100470008C931092F4001092F30081E0089580E0D4
:100480000895089580E090E00895009761F0FC01E0
:1004900001900020E9F73197AF01481B590BBC01CF
:1004A0008FEB91E06FCE80E090E00895CF93DF93E3
:1004B000ECDFEC0182E790E0E8DF8C0F9D1FDF911D
:1004C000CF910895CF93DF932EDEEC0182E790E089
:1004D000DCDF8C0F9D1FDF91CF9108958F929F924B
:1004E000AF92BF920F931F93CF93DF93CDB7DEB739
:1004F000A1970FB6F894DEBF0FBECDBF19A2423050
:1005000008F44AE08E010F5D1F4F842E912CA12C20
:10051000B12CA50194010BD3E62FB901CA010150FA
:100520001109EA3014F4E05D01C0E95CD801EC93F4
:10053000232B242B252B69F7C801A7DFA1960FB623
:10054000F894DEBF0FBECDBFDF91CF911F910F9109
:10055000BF90AF909F908F900895CF93DF93BC0191
:1005600080E090E04AE0BADFEC0182E790E08DDFC6
:100570008C0F9D1FDF91CF91089515D31F920F927D
:100580000FB60F9211242F933F938F939F93AF93A6
:10059000BF938091E9009091EA00A091EB00B091A7
:1005A000EC003091E80020E3230F2D3720F4409633
:1005B000A11DB11D05C023EB230F4196A11DB11D47
:1005C0002093E8008093E9009093EA00A093EB0069
:1005D000B093EC008091ED009091EE00A091EF00BF
:1005E000B091F0000196A11DB11D8093ED00909394
:1005F000EE00A093EF00B093F000BF91AF919F91F8
:100600008F913F912F910F900FBE0F901F901895D3
:100610001F920F920FB60F9211242F933F934F9377
:100620005F936F937F938F939F93AF93BF93EF935A
:10063000FF93E091F300F091F400309709F451C07A
:10064000968DA685B785858591FF04C09C918923E9
:1006500029F447C09C91892309F043C0A389B48938
:100660009C918589809589238C93868997890197A8
:10067000F1F7608D718DA685B785558538E020E04E
:10068000CB010197F1F7822F90E095958795282F60
:100690004C91452309F02068315091F7868D81FDFA
:1006A00020958091F20090E001968F739927309108
:1006B000F100381749F0A091F200B0E0A855BF4F03
:1006C0002C938093F20003C0868D8160868F828D8B
:1006D000938D0197F1F7A389B4899C918589892B22
:1006E0008C93FF91EF91BF91AF919F918F917F91EB
:1006F0006F915F914F913F912F910F900FBE0F908F
:100700001F90189578948AB582608ABD8AB58160F9
:100710008ABD83B7826083BF83B7816083BF89B797
:10072000826089BF80B7826080BF3298319A309AE8
:10073000379A8CB580648CBD1092DA011092D90181
:100740001092D8011092D7011092D6011092D501C3
:1007500087E190E09093DC018093DB014091CB0135
:10076000453010F521E02093D5011092D60165E1C6
:1007700070E07093D8016093D70167E070E07093E8
:10078000DA016093D9013BB730623BBF65E370E0AB
:100790007093D3016093D20101C0220F4A95EAF70A
:1007A0002093D4010197F1F78091D9019091DA015A
:1007B000892B19F18091F3009091F40021E08F3B97
:1007C0009207D9F0009709F046DE8091DD018E7F17
:1007D0008093DD011092F2001092F1008FEB91E016
:1007E0009093F4008093F300E091D201F091D30153
:1007F00090818091D401892B80831092BE0161E0A9
:1008000084E022DD60E083E01FDD61E081E01CDD4B
:1008100085E790E04BDE89E890E048DE20E0E22EBC
:1008200020E0F22E33243394C091BD01CC2321F07B
:10083000C13009F44BC0F2C097DC2091F500309133
:10084000F600F901E850FF4FAC01445F514091E0E0
:100850004132510508F490E090832F5F3F4F243CD4
:1008600031052CF43093F6002093F50004C010926B
:10087000F6001092F500E8EFF0E080E090E02191C2
:100880002111019621E0EC3BF207C9F761E08034C9
:1008900091050CF460E084E0A0DC8FEB91E0A3DD37
:1008A000892B09F4BBC08FEB91E0B4DD8B3109F0EB
:1008B000B5C08091F7008F5F8093F700833008F414
:1008C000ADC03092BD011092F700A8C08091BC016C
:1008D000882319F0813039F0A1C08AE990E0F2DD77
:1008E000C093BC019BC08FEB91E07DDD892B09F4A7
:1008F00095C08FEB91E08EDD813509F488C081379A
:1009000009F485C0813309F089C08DE890E0DADD13
:1009100098EFC92E90E0D92EE60126DC8C01D0DCC0
:100920004B015C0185E0482E512C612C712CC8DCF8
:10093000DC01CB0188199909AA09BB09883E9340BB
:10094000A105B10558F081E0481A51086108710805
:10095000E8EE8E0EE3E09E1EA11CB11C4114510472
:100960006104710421F70993199321E0CC3BD2076C
:10097000A1F68EE790E0A6DD412C512C320100E07B
:1009800010E0CFEFDFEFF601219131916F012C17CD
:100990003D0708F4E9010217130708F48901420E24
:1009A000531E611C711CFCEBCF16F1E0DF0659F7FA
:1009B00081E790E0B8DB4AE062E670E080E090E03A
:1009C0008DDD82E790E061DD8CE690E0ACDBC30179
:1009D000B20122E630E040E050E0A9D0C901BDDD1F
:1009E00087E690E0A0DBCE01B8DD82E690E09BDBFD
:1009F000C801B3DD88E590E096DBC8018C1B9D0B38
:100A0000ACDD8EE490E05EDD1092BC0107C083EAAD
:100A100090E04CDD1092BC011092BD01E114F10494
:100A200009F402CFEDDA00CF1092C2011092C10199
:100A300088EE93E0A0E0B0E08093C3019093C401FE
:100A4000A093C501B093C60184E690E09093C001E5
:100A50008093BF011092D6011092D5011092D80157
:100A60001092D7011092DA011092D9011092DC0194
:100A70001092DB016091DD016E7F6D7F6093DD017F
:100A80006695617081E06827A8DB61E081E0DCDBCE
:100A9000EBE3F0E0E491E093CF01E1E3F0E0E491F7
:100AA000F0E0EE0FFF1FE65DFF4F8591949190936C
:100AB000D1018093D00160E080E0C6DB8091DD0150
:100AC00081FD03C061E080E088DB1092CB01EAE3A6
:100AD000F0E0E491E093CC01E0E3F0E0E491F0E0B9
:100AE000EE0FFF1FE25EFF4F859194919093CE0130
:100AF0008093CD01089584E690E09093C0018093A7
:100B0000BF018FEB91E0A7CC97FB072E16F4009462
:100B100006D077FD08D02DD007FC05D03EF4909587
:100B200081959F4F0895709561957F4F0895A1E23B
:100B30001A2EAA1BBB1BFD010DC0AA1FBB1FEE1F57
:100B4000FF1FA217B307E407F50720F0A21BB30BA2
:100B5000E40BF50B661F771F881F991F1A9469F71E
:100B600060957095809590959B01AC01BD01CF017A
:100B70000895AA1BBB1B51E107C0AA1FBB1FA617E4
:100B8000B70710F0A61BB70B881F991F5A95A9F736
:100B900080959095BC01CD010895EE0FFF1F059043
:100BA000F491E02D099481E090E0F89400C010E009
:100BB000CCE6D0E003C0FE01F0DF2196CD36D107B0
:060BC000D1F7F894FFCF0D
:100BC600000000009F01C20042029E01F3010A02DA
:100BD60086010D0A00524154542043757272656EA7
:100BE600742053656E736F7200455343203320742F
:100BF600696D657320746F2063616C6962726174DC
:080C0600652E005175697400B0
:00000001FF
